:10000000800075A000209005209729800520973555
:1000100080117F00900063EF93F5A011560FBF0889
:10002000F680E27F0090006BEF93F5A011560FBFB2
:1000300004F680D17F0090006FEF93F5A011560F6A
:10004000BF06F680C07F00900075EF93F5A01156B3
:100050000FBF0EF680AF7A0C79FF78FFD8FED9FA81
:10006000DAF6220102040810204080182442811888
:1000700024428142240103070F1F3F7FFF7F3F1F60
:030080000F070364
:00000001FF
