:10000000800075800011B220900520975D8025202A
:100010009702804A75801811B975802411B97580CE
:100020004211B975808111B975804211B97580246A
:1000300011B980D375800111B275800211B275803B
:100040000411B275800811B275801011B27580204C
:1000500011B275804011B275808011B280A975808F
:100060005511B27580AA11B2809D75800111B975C4
:10007000800311B975800711B975800F11B97580AA
:100080001F11B975803F11B975807F11B97580FF57
:1000900011B975807F11B975803F11B975801F1135
:1000A000B975800F11B975800711B975800311B941
:1000B00001077B0211B9DBFC227A0679FF78FFD8B1
:0600C000FED9FADAF62277
:00000001FF
