:1000000080003128319E7800E831C6900034510AD2
:1000100090003A75F011A4F5A0A3D5E0FC5114119D
:100020002708B80EE380DB7F0C7EFF7DFFDDFEDE60
:10003000FADFF622537069656C00232A2020202005
:10004000202020202020202020230023202A2020C0
:100050002020202020202020202023002320202AB0
:1000600020202020202020202020202300232020AA
:10007000202A202020202020202020202300232090
:100080002020202A20202020202020202023002380
:1000900020202020202A2020202020202020230073
:1000A000232020202020202A202020202020202340
:1000B0000023202020202020202A20202020202053
:1000C00023002320202020202020202A2020202040
:1000D000202300232020202020202020202A202030
:1000E0002020230023202020202020202020202A20
:1000F000202020230023202020202020202020201A
:10010000202A2020230023202020202020202020FF
:100110002020202A202300232020202020202020EF
:1001200020202020202A2300C0E0C005C0047580C4
:100130001375800375050AD504FDD505FA7580137E
:10014000758003D505FD758013758003D505FD7594
:100150008012758002D505FD7428120254740C12A9
:1001600002547406120254D004D005D0E022C0E03C
:10017000C083C082C0F0C00475F008A4C2E7D2E614
:10018000120254750408E493120275A3D504F7E42F
:100190001201BCD004D0F0D082D083D0E022C0E0E5
:1001A0007401120254D0E022C0E0740E120254D046
:1001B000E022C0E0740C120254D0E022C0E044807F
:1001C000120254D0E022C0E07402120254D0E022A5
:1001D000202020202020202020202020202020201F
:1001E00000C0E074008012C0E07440800CC0E07475
:1001F000108006C0E074508000C083C0829001D09F
:10020000120232D082D083D0E022C0E07400120209
:1002100032D0E022C0E07440120232D0E022C0E0CE
:100220007410120232D0E022C0E07450120232D0B8
:10023000E0221201BC8000C0E0C004750400E504A7
:020240000504B3
:10024200B41002800893600512027580EFD004D0CA
:10025200E022C002C003C0E0C0E0C4540F4410F565
:1002620080540FF580D0E0540F4410F580540FF500
:1002720080801FC002C003C0E0C0E0C4540F44909D
:10028200F580548FF580D0E0540F4490F580548F60
:10029200F58075805FE58075804F0075805F7580A1
:1002A2004F75026475030AD503FDD502F7D0E0D07D
:1002B20003D00222C0E0C004C005C007C0F075F040
:1002C2006484F507E5F075F00A84C425F0F505E5C8
:1002D20007F5047007741F120275800312036AE5A2
:1002E20005F50754F0C4700AB50407741F120275AD
:1002F200800312036AE507540F12036AD0F0D00795
:10030200D005D004D0E022C0E0C007F50754F0C405
:1003120012036AE507540F12036AD007D0E022C025
:10032200E0C005C007750508F50720E7077400124D
:10033200036A8005740112036AE50723D505E9D033
:1003420007D005D0E022C0E074081201BCD0E0C0A2
:10035200E0120321D0E022C0E074301201BCD0E0F0
:10036200C0E0120321D0E022C0E0C006F506940AE4
:08037200E50640042437800376
:10037A00C32430120275D006D0E022C0E0540F1216
:05038A00036AD0E0222F
:00000001FF
