:0200000080136B
:02000300805526
:02000B00806112
:10001300804F1139E975F00A8493F58075A000D2F9
:10002300B51182C2B5E5F093F580EA93F5A0D2B499
:100033001182C2B480DE758901758C3C758AC0D289
:10004300A9D2AFD28CD2A8D288D2AAD28A7A007986
:1000530000780090008B22208C04D28C8020C28CEC
:1000630032208C1A7A007900780032758C3C758ABC
:10007300C008B81409780009B93C0379000A327F33
:10008300147EFFDEFEDFFA227E12BCB6D2E6EE322B
:02009300FEF677
:00000001FF
